{
  "_format": "hh-sol-artifact-1",
  "contractName": "GitHubProfileScoreOAuth",
  "sourceName": "contracts/GitHubProfileScoreOauth.sol",
  "abi": [
    {
      "inputs": [],
      "stateMutability": "nonpayable",
      "type": "constructor"
    },
    {
      "anonymous": false,
      "inputs": [
        {
          "indexed": false,
          "internalType": "string",
          "name": "username",
          "type": "string"
        },
        {
          "indexed": false,
          "internalType": "uint8",
          "name": "score",
          "type": "uint8"
        },
        {
          "indexed": false,
          "internalType": "address",
          "name": "analyzedBy",
          "type": "address"
        },
        {
          "indexed": false,
          "internalType": "bool",
          "name": "includesPrivateRepos",
          "type": "bool"
        }
      ],
      "name": "ProfileScoreAdded",
      "type": "event"
    },
    {
      "anonymous": false,
      "inputs": [
        {
          "indexed": false,
          "internalType": "string",
          "name": "username",
          "type": "string"
        },
        {
          "indexed": false,
          "internalType": "uint8",
          "name": "oldScore",
          "type": "uint8"
        },
        {
          "indexed": false,
          "internalType": "uint8",
          "name": "newScore",
          "type": "uint8"
        }
      ],
      "name": "ProfileScoreUpdated",
      "type": "event"
    },
    {
      "anonymous": false,
      "inputs": [
        {
          "indexed": false,
          "internalType": "address",
          "name": "oldServer",
          "type": "address"
        },
        {
          "indexed": false,
          "internalType": "address",
          "name": "newServer",
          "type": "address"
        }
      ],
      "name": "VerifierServerChanged",
      "type": "event"
    },
    {
      "anonymous": false,
      "inputs": [
        {
          "indexed": false,
          "internalType": "address",
          "name": "wallet",
          "type": "address"
        },
        {
          "indexed": false,
          "internalType": "string",
          "name": "username",
          "type": "string"
        },
        {
          "indexed": false,
          "internalType": "bool",
          "name": "verified",
          "type": "bool"
        }
      ],
      "name": "WalletRegistered",
      "type": "event"
    },
    {
      "inputs": [
        {
          "internalType": "string",
          "name": "username",
          "type": "string"
        },
        {
          "internalType": "uint8",
          "name": "overallScore",
          "type": "uint8"
        },
        {
          "internalType": "uint8",
          "name": "profileCompleteness",
          "type": "uint8"
        },
        {
          "internalType": "uint16",
          "name": "followers",
          "type": "uint16"
        },
        {
          "internalType": "uint8",
          "name": "repoCount",
          "type": "uint8"
        },
        {
          "internalType": "uint16",
          "name": "totalStars",
          "type": "uint16"
        },
        {
          "internalType": "uint8",
          "name": "languageDiversity",
          "type": "uint8"
        },
        {
          "internalType": "bool",
          "name": "hasPopularRepos",
          "type": "bool"
        },
        {
          "internalType": "uint8",
          "name": "recentActivity",
          "type": "uint8"
        },
        {
          "internalType": "bool",
          "name": "includesPrivateRepos",
          "type": "bool"
        }
      ],
      "name": "addProfileScore",
      "outputs": [],
      "stateMutability": "nonpayable",
      "type": "function"
    },
    {
      "inputs": [
        {
          "internalType": "uint256",
          "name": "",
          "type": "uint256"
        }
      ],
      "name": "analyzedProfiles",
      "outputs": [
        {
          "internalType": "bytes32",
          "name": "",
          "type": "bytes32"
        }
      ],
      "stateMutability": "view",
      "type": "function"
    },
    {
      "inputs": [],
      "name": "getProfileCount",
      "outputs": [
        {
          "internalType": "uint256",
          "name": "",
          "type": "uint256"
        }
      ],
      "stateMutability": "view",
      "type": "function"
    },
    {
      "inputs": [
        {
          "internalType": "string",
          "name": "username",
          "type": "string"
        }
      ],
      "name": "getProfileScore",
      "outputs": [
        {
          "components": [
            {
              "internalType": "string",
              "name": "username",
              "type": "string"
            },
            {
              "internalType": "uint256",
              "name": "timestamp",
              "type": "uint256"
            },
            {
              "internalType": "uint8",
              "name": "overallScore",
              "type": "uint8"
            },
            {
              "internalType": "uint8",
              "name": "profileCompleteness",
              "type": "uint8"
            },
            {
              "internalType": "uint16",
              "name": "followers",
              "type": "uint16"
            },
            {
              "internalType": "uint8",
              "name": "repoCount",
              "type": "uint8"
            },
            {
              "internalType": "uint16",
              "name": "totalStars",
              "type": "uint16"
            },
            {
              "internalType": "uint8",
              "name": "languageDiversity",
              "type": "uint8"
            },
            {
              "internalType": "bool",
              "name": "hasPopularRepos",
              "type": "bool"
            },
            {
              "internalType": "uint8",
              "name": "recentActivity",
              "type": "uint8"
            },
            {
              "internalType": "address",
              "name": "analyzedBy",
              "type": "address"
            },
            {
              "internalType": "bool",
              "name": "exists",
              "type": "bool"
            },
            {
              "internalType": "bool",
              "name": "includesPrivateRepos",
              "type": "bool"
            }
          ],
          "internalType": "struct GitHubProfileScoreOAuth.ProfileData",
          "name": "",
          "type": "tuple"
        }
      ],
      "stateMutability": "view",
      "type": "function"
    },
    {
      "inputs": [
        {
          "internalType": "uint256",
          "name": "startIndex",
          "type": "uint256"
        },
        {
          "internalType": "uint256",
          "name": "count",
          "type": "uint256"
        }
      ],
      "name": "getProfiles",
      "outputs": [
        {
          "components": [
            {
              "internalType": "string",
              "name": "username",
              "type": "string"
            },
            {
              "internalType": "uint256",
              "name": "timestamp",
              "type": "uint256"
            },
            {
              "internalType": "uint8",
              "name": "overallScore",
              "type": "uint8"
            },
            {
              "internalType": "uint8",
              "name": "profileCompleteness",
              "type": "uint8"
            },
            {
              "internalType": "uint16",
              "name": "followers",
              "type": "uint16"
            },
            {
              "internalType": "uint8",
              "name": "repoCount",
              "type": "uint8"
            },
            {
              "internalType": "uint16",
              "name": "totalStars",
              "type": "uint16"
            },
            {
              "internalType": "uint8",
              "name": "languageDiversity",
              "type": "uint8"
            },
            {
              "internalType": "bool",
              "name": "hasPopularRepos",
              "type": "bool"
            },
            {
              "internalType": "uint8",
              "name": "recentActivity",
              "type": "uint8"
            },
            {
              "internalType": "address",
              "name": "analyzedBy",
              "type": "address"
            },
            {
              "internalType": "bool",
              "name": "exists",
              "type": "bool"
            },
            {
              "internalType": "bool",
              "name": "includesPrivateRepos",
              "type": "bool"
            }
          ],
          "internalType": "struct GitHubProfileScoreOAuth.ProfileData[]",
          "name": "",
          "type": "tuple[]"
        }
      ],
      "stateMutability": "view",
      "type": "function"
    },
    {
      "inputs": [],
      "name": "getRegisteredWalletCount",
      "outputs": [
        {
          "internalType": "uint256",
          "name": "",
          "type": "uint256"
        }
      ],
      "stateMutability": "view",
      "type": "function"
    },
    {
      "inputs": [
        {
          "internalType": "address",
          "name": "wallet",
          "type": "address"
        }
      ],
      "name": "getWalletGitHubInfo",
      "outputs": [
        {
          "internalType": "string",
          "name": "username",
          "type": "string"
        },
        {
          "internalType": "bool",
          "name": "verified",
          "type": "bool"
        },
        {
          "internalType": "uint256",
          "name": "verificationTimestamp",
          "type": "uint256"
        }
      ],
      "stateMutability": "view",
      "type": "function"
    },
    {
      "inputs": [
        {
          "internalType": "address",
          "name": "wallet",
          "type": "address"
        }
      ],
      "name": "hasVerifiedUsername",
      "outputs": [
        {
          "internalType": "bool",
          "name": "",
          "type": "bool"
        }
      ],
      "stateMutability": "view",
      "type": "function"
    },
    {
      "inputs": [
        {
          "internalType": "address",
          "name": "wallet",
          "type": "address"
        },
        {
          "internalType": "string",
          "name": "username",
          "type": "string"
        }
      ],
      "name": "isVerifiedForUsername",
      "outputs": [
        {
          "internalType": "bool",
          "name": "",
          "type": "bool"
        }
      ],
      "stateMutability": "view",
      "type": "function"
    },
    {
      "inputs": [],
      "name": "owner",
      "outputs": [
        {
          "internalType": "address",
          "name": "",
          "type": "address"
        }
      ],
      "stateMutability": "view",
      "type": "function"
    },
    {
      "inputs": [
        {
          "internalType": "bytes32",
          "name": "",
          "type": "bytes32"
        }
      ],
      "name": "profileScores",
      "outputs": [
        {
          "internalType": "string",
          "name": "username",
          "type": "string"
        },
        {
          "internalType": "uint256",
          "name": "timestamp",
          "type": "uint256"
        },
        {
          "internalType": "uint8",
          "name": "overallScore",
          "type": "uint8"
        },
        {
          "internalType": "uint8",
          "name": "profileCompleteness",
          "type": "uint8"
        },
        {
          "internalType": "uint16",
          "name": "followers",
          "type": "uint16"
        },
        {
          "internalType": "uint8",
          "name": "repoCount",
          "type": "uint8"
        },
        {
          "internalType": "uint16",
          "name": "totalStars",
          "type": "uint16"
        },
        {
          "internalType": "uint8",
          "name": "languageDiversity",
          "type": "uint8"
        },
        {
          "internalType": "bool",
          "name": "hasPopularRepos",
          "type": "bool"
        },
        {
          "internalType": "uint8",
          "name": "recentActivity",
          "type": "uint8"
        },
        {
          "internalType": "address",
          "name": "analyzedBy",
          "type": "address"
        },
        {
          "internalType": "bool",
          "name": "exists",
          "type": "bool"
        },
        {
          "internalType": "bool",
          "name": "includesPrivateRepos",
          "type": "bool"
        }
      ],
      "stateMutability": "view",
      "type": "function"
    },
    {
      "inputs": [
        {
          "internalType": "string",
          "name": "username",
          "type": "string"
        }
      ],
      "name": "registerUserWallet",
      "outputs": [],
      "stateMutability": "nonpayable",
      "type": "function"
    },
    {
      "inputs": [
        {
          "internalType": "uint256",
          "name": "",
          "type": "uint256"
        }
      ],
      "name": "registeredWallets",
      "outputs": [
        {
          "internalType": "address",
          "name": "",
          "type": "address"
        }
      ],
      "stateMutability": "view",
      "type": "function"
    },
    {
      "inputs": [
        {
          "internalType": "address",
          "name": "wallet",
          "type": "address"
        }
      ],
      "name": "revokeVerification",
      "outputs": [],
      "stateMutability": "nonpayable",
      "type": "function"
    },
    {
      "inputs": [
        {
          "internalType": "address",
          "name": "_verifierServer",
          "type": "address"
        }
      ],
      "name": "setVerifierServer",
      "outputs": [],
      "stateMutability": "nonpayable",
      "type": "function"
    },
    {
      "inputs": [
        {
          "internalType": "address",
          "name": "",
          "type": "address"
        }
      ],
      "name": "userWallets",
      "outputs": [
        {
          "internalType": "string",
          "name": "username",
          "type": "string"
        },
        {
          "internalType": "bool",
          "name": "verified",
          "type": "bool"
        },
        {
          "internalType": "uint256",
          "name": "verificationTimestamp",
          "type": "uint256"
        },
        {
          "internalType": "bytes32",
          "name": "verificationHash",
          "type": "bytes32"
        }
      ],
      "stateMutability": "view",
      "type": "function"
    },
    {
      "inputs": [],
      "name": "verifierServer",
      "outputs": [
        {
          "internalType": "address",
          "name": "",
          "type": "address"
        }
      ],
      "stateMutability": "view",
      "type": "function"
    },
    {
      "inputs": [
        {
          "internalType": "address",
          "name": "wallet",
          "type": "address"
        },
        {
          "internalType": "string",
          "name": "username",
          "type": "string"
        },
        {
          "internalType": "bytes32",
          "name": "verificationHash",
          "type": "bytes32"
        }
      ],
      "name": "verifyUserWallet",
      "outputs": [],
      "stateMutability": "nonpayable",
      "type": "function"
    }
  ],
  "bytecode": "0x608080604052346100325760018060a01b0319338160005416176000553390600154161760015561174190816100388239f35b600080fdfe6080604052600436101561001257600080fd5b60e0600035811c908163284312a414611098578163289c960d14610c445781632f079ca014610c1b5781633697611a14610bfd57816363e6ffdd14610b7457816389fd77031461097b5781638da5cb5b146109525781639ea89a8e1461086b578163aac64763146107cc578163aaff344e14610794578163ba546cbf1461058557508063be4ca1e01461052a578063c8cfb8d61461032c578063d232f119146102ad578063d3dccdbd1461028f578063e7a7a398146101c2578063e998d2fa1461012c5763ea6c2d8a146100e557600080fd5b34610127576020366003190112610127576001600160a01b0361010661134d565b166000526004602052602060ff600160406000200154166040519015158152f35b600080fd5b346101275760203660031901126101275761014561134d565b6001546001600160a01b03919061015f90831633146115ec565b1680600052600460205260406000206101788154611363565b61017e57005b6000805160206116ec833981519152916001820160ff1981541690556101b6604051928392835260606020840152606083019061139d565b600060408301520390a1005b34610127576020366003190112610127576101db61134d565b6000546001600160a01b039081163303610240577fe19916a9e11a39347e9d533a51162050c834d20751e040c4a96802101267a19b9181604092600154921690816bffffffffffffffffffffffff60a01b8416176001558351921682526020820152a1005b60405162461bcd60e51b815260206004820152602160248201527f4f6e6c79206f776e65722063616e2063616c6c20746869732066756e6374696f6044820152603760f91b6064820152608490fd5b34610127576000366003190112610127576020600554604051908152f35b34610127576020366003190112610127576001600160a01b036102ce61134d565b16600052600460205261031b610300604060002060ff600182015416906103076002820154916040519485809261139d565b03846111d1565b604051938493606085526060850190611256565b911515602084015260408301520390f35b346101275760603660031901126101275761034561134d565b67ffffffffffffffff6024358181116101275761036690369060040161120f565b600180546001600160a01b039061038090821633146115ec565b841691826000526020936004855260406000209561039e8754611363565b1561051b575b508151908111610505576103b88654611363565b601f81116104bc575b5084601f821160011461044857958161043293926000805160206116ec8339815191529860009161043d575b50600019600383901b1c191690851b1781555b8381018460ff198254161790554260028201556003604435910155606060405195869586528501526060840190611256565b9060408301520390a1005b9050830151896103ed565b601f1982169087600052866000209160005b8181106104a75750926000805160206116ec833981519152989286928261043297961061048e575b5050811b018155610400565b85015160001960f88460031b161c191690558980610482565b8583015184559286019291880191880161045a565b8660005285600020601f830160051c8101918784106104fb575b601f0160051c019084905b8281106104ef5750506103c1565b600081550184906104e1565b90915081906104d6565b634e487b7160e01b600052604160045260246000fd5b61052490611588565b866103a4565b34610127576020366003190112610127576004356005548110156101275760056000527f036b6384b5eca791c62761152d0c79bb0604c104a5fb6f4eb0703f3154bb3db001546040516001600160a01b039091168152602090f35b3461012757604036600319011261012757600435906105a6602435836116b2565b906003805480841161078c575b50838303928311610776576105c7836116bf565b936105d560405195866111d1565b838552601f196105e4856116bf565b0160005b81811061075f57505060005b84811061065a576040805160208082528851818301819052600093600582901b8401810192808c01929185015b82871061062e5785850386f35b90919293828061064a600193603f198a82030186528851611296565b9601920196019592919092610621565b8061067061066b61075a93856116b2565b611433565b905490851b1c6000526002602081815260406000209160405192610693846111b4565b6040516106ab816106a4818561139d565b03826111d1565b845260018101548385015201549060ff908183166040850152818360081c166060850152818361ffff92838260101c1660808801521c1660a08501528260281c1660c0840152808260381c1688840152808260401c161515610100840152808260481c1661012084015260018060a01b038260501c166101408401528160f01c16151561016083015260f81c151561018082015261074982896116d7565b5261075481886116d7565b50611568565b6105f4565b60209061076a611650565b82828a010152016105e8565b634e487b7160e01b600052601160045260246000fd5b9250846105b3565b3461012757602036600319011261012757600435600354811015610127576107bd602091611433565b90549060031b1c604051908152f35b34610127576040366003190112610127576107e561134d565b6024359067ffffffffffffffff821161012757610808602092369060040161120f565b6001600160a01b0390911660009081526004835260409020600181015460ff1691908261083c575b50506040519015158152f35b6108639192506106a461085861085d926040519283809261139d565b611480565b91611480565b148280610830565b34610127576020366003190112610127576108c19060043560005260026020526040600020604051916108a283610300818561139d565b60026001830154920154906040519485946101a0808752860190611256565b92602085015260ff908183166040860152818360081c16606086015261ffff808460101c166080870152828460201c1660a08701528360281c1660c0860152818360381c1690850152808260401c161515610100850152808260481c1661012085015260018060a01b038260501c166101408501528160f01c16151561016084015260f81c15156101808301520390f35b34610127576000366003190112610127576000546040516001600160a01b039091168152602090f35b34610127576020806003193601126101275767ffffffffffffffff90600435828111610127576109af90369060040161120f565b33600052600482526040600020926109c78454611363565b15610b66575b6109e1604051610858816106a4818961139d565b6109ea83611480565b03610b47575b815190811161050557610a038454611363565b601f8111610b01575b5082601f8211600114610a845760ff60016000805160206116ec83398151915296846060979695610a6c95600091610a79575b50600019600383901b1c191690831b1781555b015416916040519485943386528501526060840190611256565b90151560408301520390a1005b90508601518a610a3f565b601f1982169085600052846000209160005b818110610aea57506000805160206116ec83398151915296600185610a6c9560ff9560609a9998849610610ad1575b5050811b018155610a52565b88015160001960f88460031b161c191690558a80610ac5565b919286600181928689015181550194019201610a96565b8460005283600020601f830160051c810191858410610b3d575b601f0160051c01905b818110610b315750610a0c565b60008155600101610b24565b9091508190610b1b565b6001840160ff19815416905560006002850155600060038501556109f0565b610b6f33611588565b6109cd565b34610127576020366003190112610127576001600160a01b03610b9561134d565b166000526004602052610be7604060002060405190610bbf82610bb8818461139d565b03836111d1565b60ff600182015416906003600282015491015490604051948594608086526080860190611256565b9215156020850152604084015260608301520390f35b34610127576000366003190112610127576020600354604051908152f35b34610127576000366003190112610127576001546040516001600160a01b039091168152602090f35b34610127576101403660031901126101275760043567ffffffffffffffff811161012757610c7690369060040161120f565b6024359060ff821682036101275760ff60443516604435036101275761ffff8060643516606435036101275760ff60843516608435036101275760a4351660a435036101275760ff60c4351660c435036101275760e4359182151583036101275760ff6101043516610104350361012757610124359283151584036101275783610fd1575b610d0483611480565b92836000526002602052604060002094600286015460ff8160f01c1615600014610f745750815167ffffffffffffffff811161050557610d448754611363565b601f8111610f30575b50806020601f8211600114610ec957600091610ebe575b508160011b916000199060031b1c19161786555b60028601805460ff60f01b1916600160f01b17905560035494600160401b86101561050557610e0460ff60401b937f6c10f79e3f55e20d69854cdd2875a33064b65eacd91b9be37114afad8309a80f92610dda89600160029b01600355611433565b819291549060031b91821b91600019901b1916179055604051918291608083526080830190611256565b60ff8816602083015233604083015284151560608301520390a15b42600187015560ff85870154918160f81b90151560f81b1694169060ff60f01b161761ff0060443560081b161763ffff000060643560101b161764ff0000000060843560201b161766ffff000000000060a43560281b161767ff0000000000000060c43560381b161791151560401b161769ff0000000000000000006101043560481b1617600160501b600160f01b033360501b161717910155600080f35b905083015188610d64565b91508760005260206000206000925b601f1983168410610f18576001935082601f19811610610eff575b5050811b018655610d78565b85015160001960f88460031b161c191690558880610ef3565b85810151825560209384019360019092019101610ed8565b876000526020600020601f830160051c810160208410610f6d575b601f830160051c82018110610f61575050610d4d565b60008155600101610f4b565b5080610f4b565b60029550610fb960ff60401b937f8449a783b2f9ba15b36e86377cff6efdabe5c3666c3d5482be084af8d5f810019260ff604051938493606085526060850190611256565b9116602083015260ff881660408301520390a1610e1f565b336000526004602052604060002060ff6001820154169081611070575b50610cfb5760405162461bcd60e51b815260206004820152604960248201527f546f20696e636c7564652070726976617465207265706f732c2077616c6c657460448201527f206d75737420626520766572696669656420666f72207468697320476974487560648201526818881858d8dbdd5b9d60ba1b608482015260a490fd5b61108891506108586106a4916040519283809261139d565b61109184611480565b1485610fee565b34610127576020806003193601126101275760043567ffffffffffffffff8111610127576110cd6110db91369060040161120f565b6110d5611650565b50611480565b600052600281526040600020916002604051936110f7856111b4565b604051611108816106a4818561139d565b855260018101548486015201549060ff908183166040860152818360081c16606086015261ffff808460101c1660808701528284861c1660a08701528360281c1660c0860152818360381c1690850152808260401c161515610100850152808260481c1661012085015260018060a01b038260501c166101408501528160f01c16151561016084015260f81c15156101808301526111b0604051928284938452830190611296565b0390f35b6101a0810190811067ffffffffffffffff82111761050557604052565b90601f8019910116810190811067ffffffffffffffff82111761050557604052565b67ffffffffffffffff811161050557601f01601f191660200190565b81601f8201121561012757803590611226826111f3565b9261123460405194856111d1565b8284526020838301011161012757816000926020809301838601378301015290565b919082519283825260005b848110611282575050826000602080949584010152601f8019910116010190565b602081830181015184830182015201611261565b906112aa82516101a0808452830190611256565b916020810151602083015260ff604082015116604083015260ff606082015116606083015261ffff80608083015116608084015260ff60a08301511660a084015260c08201511660c083015260ff60e08201511660e08301526101008082015115159083015261012060ff81830151169083015261014060018060a01b038183015116908301526101608082015115159083015261018080910151151591015290565b600435906001600160a01b038216820361012757565b90600182811c92168015611393575b602083101461137d57565b634e487b7160e01b600052602260045260246000fd5b91607f1691611372565b90600092918054916113ae83611363565b91828252600193848116908160001461141057506001146113d0575b50505050565b90919394506000526020928360002092846000945b8386106113fc5750505050010190388080806113ca565b8054858701830152940193859082016113e5565b9294505050602093945060ff191683830152151560051b010190388080806113ca565b60035481101561146a5760036000527fc2575a0e9e593c00f959f8c92f12db2869c3395a3b0502d05e2516446f71f85b0190600090565b634e487b7160e01b600052603260045260246000fd5b9081516114a561148f826111f3565b9161149d60405193846111d1565b8083526111f3565b6020828101939091601f190136853760005b855181101561155e576114ca8187611577565b5190604160f892831c101580611547575b1561152057836114eb8289611577565b51831c019160ff83116107765761151b92901b6001600160f81b03191660001a6115158287611577565b53611568565b6114b7565b61151b91506001600160f81b03196115388289611577565b511660001a6115158287611577565b50605a6115548289611577565b51831c11156114db565b5093505051902090565b60001981146107765760010190565b90815181101561146a570160200190565b600554600160401b81101561050557600181018060055581101561146a5760056000527f036b6384b5eca791c62761152d0c79bb0604c104a5fb6f4eb0703f3154bb3db00180546001600160a01b0319166001600160a01b03909216919091179055565b156115f357565b60405162461bcd60e51b815260206004820152602f60248201527f4f6e6c7920617574686f72697a65642076657269666965722063616e2063616c60448201526e36103a3434b990333ab731ba34b7b760891b6064820152608490fd5b6040519061165d826111b4565b81606081526101806000918260208201528260408201528260608201528260808201528260a08201528260c08201528260e0820152826101008201528261012082015282610140820152826101608201520152565b9190820180921161077657565b67ffffffffffffffff81116105055760051b60200190565b805182101561146a5760209160051b01019056feb629891be2e5de998af5c8af09d8411daba2eb81310df50cdb131d781e36ac33a2646970667358221220b3cfd3aee94f7bfe8b8c9be6ca3dad0e29488b55e4fbf6d56c037baa1398106364736f6c63430008130033",
  "linkReferences": {},
  "deployedLinkReferences": {}
}