{
  "_format": "hh-sol-artifact-1",
  "contractName": "OpenSourceBounty",
  "sourceName": "contracts/bounty.sol",
  "abi": [
    {
      "inputs": [
        {
          "internalType": "address",
          "name": "_profileScoreContract",
          "type": "address"
        },
        {
          "internalType": "address",
          "name": "_paymentToken",
          "type": "address"
        }
      ],
      "stateMutability": "nonpayable",
      "type": "constructor"
    },
    {
      "anonymous": false,
      "inputs": [
        {
          "indexed": true,
          "internalType": "uint256",
          "name": "bountyId",
          "type": "uint256"
        },
        {
          "indexed": true,
          "internalType": "address",
          "name": "assignee",
          "type": "address"
        },
        {
          "indexed": false,
          "internalType": "string",
          "name": "githubUsername",
          "type": "string"
        }
      ],
      "name": "BountyAssigned",
      "type": "event"
    },
    {
      "anonymous": false,
      "inputs": [
        {
          "indexed": true,
          "internalType": "uint256",
          "name": "bountyId",
          "type": "uint256"
        }
      ],
      "name": "BountyCancelled",
      "type": "event"
    },
    {
      "anonymous": false,
      "inputs": [
        {
          "indexed": true,
          "internalType": "uint256",
          "name": "bountyId",
          "type": "uint256"
        },
        {
          "indexed": true,
          "internalType": "address",
          "name": "recipient",
          "type": "address"
        },
        {
          "indexed": false,
          "internalType": "uint256",
          "name": "amount",
          "type": "uint256"
        }
      ],
      "name": "BountyCompleted",
      "type": "event"
    },
    {
      "anonymous": false,
      "inputs": [
        {
          "indexed": true,
          "internalType": "uint256",
          "name": "bountyId",
          "type": "uint256"
        },
        {
          "indexed": true,
          "internalType": "uint256",
          "name": "projectId",
          "type": "uint256"
        },
        {
          "indexed": false,
          "internalType": "uint256",
          "name": "issueNumber",
          "type": "uint256"
        },
        {
          "indexed": false,
          "internalType": "uint256",
          "name": "amount",
          "type": "uint256"
        }
      ],
      "name": "BountyCreated",
      "type": "event"
    },
    {
      "anonymous": false,
      "inputs": [
        {
          "indexed": true,
          "internalType": "uint256",
          "name": "bountyId",
          "type": "uint256"
        },
        {
          "indexed": false,
          "internalType": "string",
          "name": "pullRequestUrl",
          "type": "string"
        }
      ],
      "name": "BountySubmitted",
      "type": "event"
    },
    {
      "anonymous": false,
      "inputs": [
        {
          "indexed": true,
          "internalType": "address",
          "name": "previousOwner",
          "type": "address"
        },
        {
          "indexed": true,
          "internalType": "address",
          "name": "newOwner",
          "type": "address"
        }
      ],
      "name": "OwnershipTransferred",
      "type": "event"
    },
    {
      "anonymous": false,
      "inputs": [
        {
          "indexed": true,
          "internalType": "uint256",
          "name": "projectId",
          "type": "uint256"
        },
        {
          "indexed": true,
          "internalType": "address",
          "name": "owner",
          "type": "address"
        },
        {
          "indexed": false,
          "internalType": "string",
          "name": "name",
          "type": "string"
        },
        {
          "indexed": false,
          "internalType": "string",
          "name": "repoName",
          "type": "string"
        }
      ],
      "name": "ProjectRegistered",
      "type": "event"
    },
    {
      "inputs": [
        {
          "internalType": "uint256",
          "name": "bountyId",
          "type": "uint256"
        },
        {
          "internalType": "string",
          "name": "githubUsername",
          "type": "string"
        }
      ],
      "name": "applyForBounty",
      "outputs": [],
      "stateMutability": "nonpayable",
      "type": "function"
    },
    {
      "inputs": [
        {
          "internalType": "uint256",
          "name": "",
          "type": "uint256"
        }
      ],
      "name": "bounties",
      "outputs": [
        {
          "internalType": "uint256",
          "name": "id",
          "type": "uint256"
        },
        {
          "internalType": "uint256",
          "name": "projectId",
          "type": "uint256"
        },
        {
          "internalType": "uint256",
          "name": "issueId",
          "type": "uint256"
        },
        {
          "internalType": "uint256",
          "name": "issueNumber",
          "type": "uint256"
        },
        {
          "internalType": "string",
          "name": "issueTitle",
          "type": "string"
        },
        {
          "internalType": "string",
          "name": "issueUrl",
          "type": "string"
        },
        {
          "internalType": "uint256",
          "name": "amount",
          "type": "uint256"
        },
        {
          "internalType": "string",
          "name": "difficultyLevel",
          "type": "string"
        },
        {
          "internalType": "address",
          "name": "assignee",
          "type": "address"
        },
        {
          "internalType": "address",
          "name": "payoutAddress",
          "type": "address"
        },
        {
          "internalType": "enum OpenSourceBounty.BountyStatus",
          "name": "status",
          "type": "uint8"
        },
        {
          "internalType": "uint256",
          "name": "createdAt",
          "type": "uint256"
        },
        {
          "internalType": "uint256",
          "name": "updatedAt",
          "type": "uint256"
        }
      ],
      "stateMutability": "view",
      "type": "function"
    },
    {
      "inputs": [
        {
          "internalType": "address",
          "name": "",
          "type": "address"
        },
        {
          "internalType": "uint256",
          "name": "",
          "type": "uint256"
        }
      ],
      "name": "bountiesByContributor",
      "outputs": [
        {
          "internalType": "uint256",
          "name": "",
          "type": "uint256"
        }
      ],
      "stateMutability": "view",
      "type": "function"
    },
    {
      "inputs": [
        {
          "internalType": "uint256",
          "name": "",
          "type": "uint256"
        },
        {
          "internalType": "uint256",
          "name": "",
          "type": "uint256"
        }
      ],
      "name": "bountiesByProject",
      "outputs": [
        {
          "internalType": "uint256",
          "name": "",
          "type": "uint256"
        }
      ],
      "stateMutability": "view",
      "type": "function"
    },
    {
      "inputs": [
        {
          "internalType": "uint256",
          "name": "baseAmount",
          "type": "uint256"
        },
        {
          "internalType": "uint8",
          "name": "score",
          "type": "uint8"
        }
      ],
      "name": "calculatePaymentAmount",
      "outputs": [
        {
          "internalType": "uint256",
          "name": "",
          "type": "uint256"
        }
      ],
      "stateMutability": "pure",
      "type": "function"
    },
    {
      "inputs": [
        {
          "internalType": "uint256",
          "name": "bountyId",
          "type": "uint256"
        }
      ],
      "name": "cancelBounty",
      "outputs": [],
      "stateMutability": "nonpayable",
      "type": "function"
    },
    {
      "inputs": [
        {
          "internalType": "uint256",
          "name": "bountyId",
          "type": "uint256"
        }
      ],
      "name": "completeBounty",
      "outputs": [],
      "stateMutability": "nonpayable",
      "type": "function"
    },
    {
      "inputs": [
        {
          "internalType": "uint256",
          "name": "projectId",
          "type": "uint256"
        },
        {
          "internalType": "uint256",
          "name": "issueId",
          "type": "uint256"
        },
        {
          "internalType": "uint256",
          "name": "issueNumber",
          "type": "uint256"
        },
        {
          "internalType": "string",
          "name": "issueTitle",
          "type": "string"
        },
        {
          "internalType": "string",
          "name": "issueUrl",
          "type": "string"
        },
        {
          "internalType": "uint256",
          "name": "amount",
          "type": "uint256"
        },
        {
          "internalType": "string",
          "name": "difficultyLevel",
          "type": "string"
        }
      ],
      "name": "createBounty",
      "outputs": [
        {
          "internalType": "uint256",
          "name": "",
          "type": "uint256"
        }
      ],
      "stateMutability": "nonpayable",
      "type": "function"
    },
    {
      "inputs": [],
      "name": "getAllOpenBounties",
      "outputs": [
        {
          "components": [
            {
              "internalType": "uint256",
              "name": "id",
              "type": "uint256"
            },
            {
              "internalType": "uint256",
              "name": "projectId",
              "type": "uint256"
            },
            {
              "internalType": "uint256",
              "name": "issueId",
              "type": "uint256"
            },
            {
              "internalType": "uint256",
              "name": "issueNumber",
              "type": "uint256"
            },
            {
              "internalType": "string",
              "name": "issueTitle",
              "type": "string"
            },
            {
              "internalType": "string",
              "name": "issueUrl",
              "type": "string"
            },
            {
              "internalType": "uint256",
              "name": "amount",
              "type": "uint256"
            },
            {
              "internalType": "string",
              "name": "difficultyLevel",
              "type": "string"
            },
            {
              "internalType": "address",
              "name": "assignee",
              "type": "address"
            },
            {
              "internalType": "address",
              "name": "payoutAddress",
              "type": "address"
            },
            {
              "internalType": "enum OpenSourceBounty.BountyStatus",
              "name": "status",
              "type": "uint8"
            },
            {
              "internalType": "uint256",
              "name": "createdAt",
              "type": "uint256"
            },
            {
              "internalType": "uint256",
              "name": "updatedAt",
              "type": "uint256"
            }
          ],
          "internalType": "struct OpenSourceBounty.Bounty[]",
          "name": "",
          "type": "tuple[]"
        }
      ],
      "stateMutability": "view",
      "type": "function"
    },
    {
      "inputs": [
        {
          "internalType": "uint256",
          "name": "projectId",
          "type": "uint256"
        },
        {
          "internalType": "uint256",
          "name": "issueId",
          "type": "uint256"
        }
      ],
      "name": "getBountyByProjectAndIssue",
      "outputs": [
        {
          "internalType": "uint256",
          "name": "id",
          "type": "uint256"
        },
        {
          "internalType": "uint256",
          "name": "bountyProjectId",
          "type": "uint256"
        },
        {
          "internalType": "uint256",
          "name": "bountyIssueId",
          "type": "uint256"
        },
        {
          "internalType": "uint256",
          "name": "issueNumber",
          "type": "uint256"
        },
        {
          "internalType": "string",
          "name": "issueTitle",
          "type": "string"
        },
        {
          "internalType": "string",
          "name": "issueUrl",
          "type": "string"
        },
        {
          "internalType": "uint256",
          "name": "amount",
          "type": "uint256"
        },
        {
          "internalType": "string",
          "name": "difficultyLevel",
          "type": "string"
        },
        {
          "internalType": "address",
          "name": "assignee",
          "type": "address"
        },
        {
          "internalType": "address",
          "name": "payoutAddress",
          "type": "address"
        },
        {
          "internalType": "enum OpenSourceBounty.BountyStatus",
          "name": "status",
          "type": "uint8"
        },
        {
          "internalType": "uint256",
          "name": "createdAt",
          "type": "uint256"
        },
        {
          "internalType": "uint256",
          "name": "updatedAt",
          "type": "uint256"
        },
        {
          "internalType": "bool",
          "name": "exists",
          "type": "bool"
        }
      ],
      "stateMutability": "view",
      "type": "function"
    },
    {
      "inputs": [
        {
          "internalType": "address",
          "name": "contributor",
          "type": "address"
        }
      ],
      "name": "getContributorActiveBounties",
      "outputs": [
        {
          "components": [
            {
              "internalType": "uint256",
              "name": "id",
              "type": "uint256"
            },
            {
              "internalType": "uint256",
              "name": "projectId",
              "type": "uint256"
            },
            {
              "internalType": "uint256",
              "name": "issueId",
              "type": "uint256"
            },
            {
              "internalType": "uint256",
              "name": "issueNumber",
              "type": "uint256"
            },
            {
              "internalType": "string",
              "name": "issueTitle",
              "type": "string"
            },
            {
              "internalType": "string",
              "name": "issueUrl",
              "type": "string"
            },
            {
              "internalType": "uint256",
              "name": "amount",
              "type": "uint256"
            },
            {
              "internalType": "string",
              "name": "difficultyLevel",
              "type": "string"
            },
            {
              "internalType": "address",
              "name": "assignee",
              "type": "address"
            },
            {
              "internalType": "address",
              "name": "payoutAddress",
              "type": "address"
            },
            {
              "internalType": "enum OpenSourceBounty.BountyStatus",
              "name": "status",
              "type": "uint8"
            },
            {
              "internalType": "uint256",
              "name": "createdAt",
              "type": "uint256"
            },
            {
              "internalType": "uint256",
              "name": "updatedAt",
              "type": "uint256"
            }
          ],
          "internalType": "struct OpenSourceBounty.Bounty[]",
          "name": "",
          "type": "tuple[]"
        }
      ],
      "stateMutability": "view",
      "type": "function"
    },
    {
      "inputs": [
        {
          "internalType": "address",
          "name": "contributor",
          "type": "address"
        }
      ],
      "name": "getContributorBounties",
      "outputs": [
        {
          "internalType": "uint256[]",
          "name": "",
          "type": "uint256[]"
        }
      ],
      "stateMutability": "view",
      "type": "function"
    },
    {
      "inputs": [
        {
          "internalType": "address",
          "name": "contributor",
          "type": "address"
        }
      ],
      "name": "getContributorCompletedBounties",
      "outputs": [
        {
          "components": [
            {
              "internalType": "uint256",
              "name": "id",
              "type": "uint256"
            },
            {
              "internalType": "uint256",
              "name": "projectId",
              "type": "uint256"
            },
            {
              "internalType": "uint256",
              "name": "issueId",
              "type": "uint256"
            },
            {
              "internalType": "uint256",
              "name": "issueNumber",
              "type": "uint256"
            },
            {
              "internalType": "string",
              "name": "issueTitle",
              "type": "string"
            },
            {
              "internalType": "string",
              "name": "issueUrl",
              "type": "string"
            },
            {
              "internalType": "uint256",
              "name": "amount",
              "type": "uint256"
            },
            {
              "internalType": "string",
              "name": "difficultyLevel",
              "type": "string"
            },
            {
              "internalType": "address",
              "name": "assignee",
              "type": "address"
            },
            {
              "internalType": "address",
              "name": "payoutAddress",
              "type": "address"
            },
            {
              "internalType": "enum OpenSourceBounty.BountyStatus",
              "name": "status",
              "type": "uint8"
            },
            {
              "internalType": "uint256",
              "name": "createdAt",
              "type": "uint256"
            },
            {
              "internalType": "uint256",
              "name": "updatedAt",
              "type": "uint256"
            }
          ],
          "internalType": "struct OpenSourceBounty.Bounty[]",
          "name": "",
          "type": "tuple[]"
        }
      ],
      "stateMutability": "view",
      "type": "function"
    },
    {
      "inputs": [
        {
          "internalType": "address",
          "name": "owner",
          "type": "address"
        }
      ],
      "name": "getOwnerProjects",
      "outputs": [
        {
          "internalType": "uint256[]",
          "name": "",
          "type": "uint256[]"
        }
      ],
      "stateMutability": "view",
      "type": "function"
    },
    {
      "inputs": [
        {
          "internalType": "uint256",
          "name": "projectId",
          "type": "uint256"
        }
      ],
      "name": "getProject",
      "outputs": [
        {
          "internalType": "uint256",
          "name": "id",
          "type": "uint256"
        },
        {
          "internalType": "address",
          "name": "owner",
          "type": "address"
        },
        {
          "internalType": "string",
          "name": "name",
          "type": "string"
        },
        {
          "internalType": "string",
          "name": "description",
          "type": "string"
        },
        {
          "internalType": "string",
          "name": "website",
          "type": "string"
        },
        {
          "internalType": "string",
          "name": "githubUrl",
          "type": "string"
        },
        {
          "internalType": "string",
          "name": "repoName",
          "type": "string"
        },
        {
          "internalType": "uint256",
          "name": "repoId",
          "type": "uint256"
        },
        {
          "internalType": "uint256",
          "name": "timestamp",
          "type": "uint256"
        },
        {
          "internalType": "bool",
          "name": "exists",
          "type": "bool"
        }
      ],
      "stateMutability": "view",
      "type": "function"
    },
    {
      "inputs": [
        {
          "internalType": "uint256",
          "name": "projectId",
          "type": "uint256"
        }
      ],
      "name": "getProjectBounties",
      "outputs": [
        {
          "internalType": "uint256[]",
          "name": "",
          "type": "uint256[]"
        }
      ],
      "stateMutability": "view",
      "type": "function"
    },
    {
      "inputs": [],
      "name": "owner",
      "outputs": [
        {
          "internalType": "address",
          "name": "",
          "type": "address"
        }
      ],
      "stateMutability": "view",
      "type": "function"
    },
    {
      "inputs": [],
      "name": "paymentToken",
      "outputs": [
        {
          "internalType": "contract IERC20",
          "name": "",
          "type": "address"
        }
      ],
      "stateMutability": "view",
      "type": "function"
    },
    {
      "inputs": [],
      "name": "profileScoreContract",
      "outputs": [
        {
          "internalType": "contract IGitHubProfileScoreZK",
          "name": "",
          "type": "address"
        }
      ],
      "stateMutability": "view",
      "type": "function"
    },
    {
      "inputs": [
        {
          "internalType": "uint256",
          "name": "",
          "type": "uint256"
        }
      ],
      "name": "projects",
      "outputs": [
        {
          "internalType": "uint256",
          "name": "id",
          "type": "uint256"
        },
        {
          "internalType": "address",
          "name": "owner",
          "type": "address"
        },
        {
          "internalType": "string",
          "name": "name",
          "type": "string"
        },
        {
          "internalType": "string",
          "name": "description",
          "type": "string"
        },
        {
          "internalType": "string",
          "name": "website",
          "type": "string"
        },
        {
          "internalType": "string",
          "name": "githubUrl",
          "type": "string"
        },
        {
          "internalType": "string",
          "name": "repoName",
          "type": "string"
        },
        {
          "internalType": "uint256",
          "name": "repoId",
          "type": "uint256"
        },
        {
          "internalType": "uint256",
          "name": "timestamp",
          "type": "uint256"
        },
        {
          "internalType": "bool",
          "name": "exists",
          "type": "bool"
        }
      ],
      "stateMutability": "view",
      "type": "function"
    },
    {
      "inputs": [
        {
          "internalType": "address",
          "name": "",
          "type": "address"
        },
        {
          "internalType": "uint256",
          "name": "",
          "type": "uint256"
        }
      ],
      "name": "projectsByOwner",
      "outputs": [
        {
          "internalType": "uint256",
          "name": "",
          "type": "uint256"
        }
      ],
      "stateMutability": "view",
      "type": "function"
    },
    {
      "inputs": [
        {
          "internalType": "string",
          "name": "",
          "type": "string"
        }
      ],
      "name": "projectsByRepoId",
      "outputs": [
        {
          "internalType": "uint256",
          "name": "",
          "type": "uint256"
        }
      ],
      "stateMutability": "view",
      "type": "function"
    },
    {
      "inputs": [
        {
          "internalType": "string",
          "name": "name",
          "type": "string"
        },
        {
          "internalType": "string",
          "name": "description",
          "type": "string"
        },
        {
          "internalType": "string",
          "name": "website",
          "type": "string"
        },
        {
          "internalType": "string",
          "name": "githubUrl",
          "type": "string"
        },
        {
          "internalType": "string",
          "name": "repoName",
          "type": "string"
        },
        {
          "internalType": "uint256",
          "name": "repoId",
          "type": "uint256"
        }
      ],
      "name": "registerProject",
      "outputs": [
        {
          "internalType": "uint256",
          "name": "",
          "type": "uint256"
        }
      ],
      "stateMutability": "nonpayable",
      "type": "function"
    },
    {
      "inputs": [],
      "name": "renounceOwnership",
      "outputs": [],
      "stateMutability": "nonpayable",
      "type": "function"
    },
    {
      "inputs": [
        {
          "internalType": "address",
          "name": "_paymentToken",
          "type": "address"
        }
      ],
      "name": "setPaymentToken",
      "outputs": [],
      "stateMutability": "nonpayable",
      "type": "function"
    },
    {
      "inputs": [
        {
          "internalType": "address",
          "name": "_profileScoreContract",
          "type": "address"
        }
      ],
      "name": "setProfileScoreContract",
      "outputs": [],
      "stateMutability": "nonpayable",
      "type": "function"
    },
    {
      "inputs": [
        {
          "internalType": "uint256",
          "name": "",
          "type": "uint256"
        }
      ],
      "name": "submissions",
      "outputs": [
        {
          "internalType": "string",
          "name": "pullRequestUrl",
          "type": "string"
        },
        {
          "internalType": "uint256",
          "name": "submittedAt",
          "type": "uint256"
        },
        {
          "internalType": "string",
          "name": "githubUsername",
          "type": "string"
        }
      ],
      "stateMutability": "view",
      "type": "function"
    },
    {
      "inputs": [
        {
          "internalType": "uint256",
          "name": "bountyId",
          "type": "uint256"
        },
        {
          "internalType": "string",
          "name": "pullRequestUrl",
          "type": "string"
        },
        {
          "internalType": "string",
          "name": "githubUsername",
          "type": "string"
        }
      ],
      "name": "submitWork",
      "outputs": [],
      "stateMutability": "nonpayable",
      "type": "function"
    },
    {
      "inputs": [
        {
          "internalType": "address",
          "name": "newOwner",
          "type": "address"
        }
      ],
      "name": "transferOwnership",
      "outputs": [],
      "stateMutability": "nonpayable",
      "type": "function"
    },
    {
      "inputs": [
        {
          "internalType": "uint256",
          "name": "bountyId",
          "type": "uint256"
        },
        {
          "internalType": "address",
          "name": "payoutAddress",
          "type": "address"
        }
      ],
      "name": "updatePayoutAddress",
      "outputs": [],
      "stateMutability": "nonpayable",
      "type": "function"
    }
  ],
  "bytecode": "0x608034620000da57601f6200392338819003918201601f19168301916001600160401b03831184841017620000df578084926040948552833981010312620000da576200005a60206200005283620000f5565b9201620000f5565b60008054336001600160a01b0319808316821784556040519590946001600160a01b03949093859391908416907f8be0079c531659141344cd1fd0a4f28419497f9722a3daafe3b4186f6b6457e09080a36001805560016004556001600555168360025416176002551690600354161760035561381890816200010b8239f35b600080fd5b634e487b7160e01b600052604160045260246000fd5b51906001600160a01b0382168203620000da5756fe6080604052600436101561001257600080fd5b60003560e01c8063107046bd14612e45578063139005ab146129fb578063214b3a27146129ca578063246f220b146129525780633013ce29146129295780633f613eb6146128df578063534451c8146127e0578063691eb014146126965780636a326ab114612649578063715018a6146125f057806377c2ceb6146124f257806379128817146124855780637db39ef51461240d5780638d086c46146123e45780638da5cb5b146123bb57806390a02b8b1461224857806394011e821461211c578063a7717833146120a6578063ad73349e1461203d578063d53debea14611729578063dbcc2e76146116f5578063dc2f8744146115ea578063defacc3b14610c34578063e431a26914610a4e578063e5e5dff114610843578063f0f3f2c8146107ac578063f2fde38b146106e8578063f482086814610690578063f7cbfd18146101b85763fc26187d1461016657600080fd5b346101b35760203660031901126101b35761017f613144565b61018761332a565b6001600160a01b031661019b811515613382565b6001600160601b0360a01b6002541617600255600080f35b600080fd5b346101b35760603660031901126101b3576024356001600160401b0381116101b3576101e89036906004016132fd565b6044356001600160401b0381116101b3576102079036906004016132fd565b929060043560005260096020526040600020906102268254151561347b565b600982019182549260ff8460a01c16600581101561067a5760010361063c5760088201546001600160a01b0390811633036105f75760025416936020604051809663aac6476360e01b825281806102828d8a33600485016134bf565b03915afa9485156105eb576000956105aa575b506102a26102e0956134e4565b60ff60a01b1916600160a11b17905542600b9190910155604051946102c686612f14565b6102d13686866132b7565b865242602087015236916132b7565b6040840152600435600052600c602052604060002083518051906001600160401b0382116104d6576103128354612eda565b601f8111610566575b50602090601f83116001146104f7579180604094926002946000926104ec575b50508160011b916000199060031b1c19161781555b60208601516001820155019301519283516001600160401b0381116104d6576103798254612eda565b601f811161048e575b506020601f82116001146104005790806103f09493927f2195f567a95bef162b596637212e7ece92a3d934b5924ef48b543fe42bdfa89c96976000926103f5575b50508160011b916000199060031b1c19161790555b60405191829160208352600435956020840191613409565b0390a2005b0151905087806103c3565b601f198216958360005260206000209660005b81811061047657509660019284926103f09796957f2195f567a95bef162b596637212e7ece92a3d934b5924ef48b543fe42bdfa89c999a1061045d575b505050811b0190556103d8565b015160001960f88460031b161c19169055878080610450565b83830151895560019098019760209384019301610413565b826000526020600020601f830160051c810191602084106104cc575b601f0160051c01905b8181106104c05750610382565b600081556001016104b3565b90915081906104aa565b634e487b7160e01b600052604160045260246000fd5b01519050888061033b565b908360005260206000209160005b601f198516811061054e5750926040949260019260029583601f19811610610535575b505050811b018155610350565b015160001960f88460031b161c19169055888080610528565b91926020600181928685015181550194019201610505565b836000526020600020601f840160051c8101602085106105a3575b601f830160051c8201811061059757505061031b565b60008155600101610581565b5080610581565b94506020853d6020116105e3575b816105c560209383612f66565b810103126101b3576102a26105dc6102e09661342a565b9550610295565b3d91506105b8565b6040513d6000823e3d90fd5b60405162461bcd60e51b815260206004820152601d60248201527f4f6e6c792061737369676e65652063616e207375626d697420776f726b0000006044820152606490fd5b60405162461bcd60e51b8152602060048201526016602482015275109bdd5b9d1e481a5cc81b9bdd08185cdcda59db995960521b6044820152606490fd5b634e487b7160e01b600052602160045260246000fd5b346101b35760403660031901126101b3576106a9613144565b6001600160a01b03166000908152600760205260409020805460243591908210156101b3576020916106da91613116565b90546040519160031b1c8152f35b346101b35760203660031901126101b357610701613144565b61070961332a565b6001600160a01b0390811690811561075857600054826001600160601b0360a01b821617600055167f8be0079c531659141344cd1fd0a4f28419497f9722a3daafe3b4186f6b6457e0600080a3005b60405162461bcd60e51b815260206004820152602660248201527f4f776e61626c653a206e6577206f776e657220697320746865207a65726f206160448201526564647265737360d01b6064820152608490fd5b346101b35760203660031901126101b35760043560005260066020526040600020805461083f60018060a01b0360018401541692600781015460088201549060ff6009840154169261080060028201612f87565b9061080d60038201612f87565b61081960048301612f87565b90610832600661082b60058601612f87565b9401612f87565b936040519a8b9a8b613075565b0390f35b346101b3576020806003193601126101b35760043590610861613545565b8160005260098152604060002061087a8154151561347b565b60098101805460ff8160a01c16600581101561067a578015908115610a43575b50156109fe57600183015491826000526006855260018060a01b0391826001604060002001541633036109aa5760ff60a01b1916600160a21b17905542600b840155600354600092835260068086526040808520600101549190950154945163a9059cbb60e01b81526001600160a01b03918416919091166004820152602481019490945292939283928592604492849291165af19081156105eb57600091610973575b8361094883613437565b7f92717314c0b0f9d632e1d46a0b8437778ff9daee1db8ec295f2bc0b57c4bcaac600080a260018055005b905081813d83116109a3575b6109898183612f66565b810103126101b35761099d6109489161342a565b8361093e565b503d61097f565b60405162461bcd60e51b815260048101879052602660248201527f4f6e6c792070726f6a656374206f776e65722063616e2063616e63656c20626f604482015265756e7469657360d01b6064820152608490fd5b60405162461bcd60e51b815260048101859052601a60248201527f426f756e74792063616e6e6f742062652063616e63656c6c65640000000000006044820152606490fd5b60019150148661089a565b346101b35760403660031901126101b3576004356024356001600160401b0381116101b357610a819036906004016132fd565b610a8c929192613545565b8160005260209260098452604060002091610aa98354151561347b565b600983019283549360ff8560a01c16600581101561067a57610bfa5760025460405163aac6476360e01b81529590889087906001600160a01b03168180610af5898b33600485016134bf565b03915afa9586156105eb57600096610ba0575b50610b337f56be5e6fd67bc715f72d651821434e04f4966c4d8ee54e68005025e622c8edad966134e4565b60088301336001600160601b0360a01b825416179055600160a01b9033906affffffffffffffffffffff60a81b1617179055600b4291015533600052600b8552610b818460406000206133cf565b610b976040519283928784523397840191613409565b0390a360018055005b95508786813d8311610bf3575b610bb78183612f66565b810103126101b357610b33610bec7f56be5e6fd67bc715f72d651821434e04f4966c4d8ee54e68005025e622c8edad9761342a565b9650610b08565b503d610bad565b60405162461bcd60e51b81526004810188905260126024820152712137bab73a3c9034b9903737ba1037b832b760711b6044820152606490fd5b346101b35760c03660031901126101b3576004356001600160401b0381116101b357610c649036906004016132fd565b6024356001600160401b0381116101b357610c839036906004016132fd565b916044356001600160401b0381116101b357610ca39036906004016132fd565b9190936064356001600160401b0381116101b357610cc59036906004016132fd565b91906084356001600160401b0381116101b357610ce69036906004016132fd565b93909685156115b257811561157457841561152f5760a435156114ea576040518589823760088682015260208187810103019020546114a55760045498610d2c8a6133c0565b60045560405197886101408101106001600160401b036101408b0111176104d657610d82610d8e93610d9a97610d768f8f8e6101408101604052528d6020339101528c36916132b7565b60408d015236916132b7565b60608a015236916132b7565b608087015236916132b7565b60a0840152610daa3682866132b7565b60c084015260a43560e08401524261010084015260016101208401528460005260066020526040600020835181556001810160018060a01b036020860151166001600160601b0360a01b82541617905560408401518051906001600160401b0382116104d6578190610e1f6002850154612eda565b601f8111611452575b50602090601f83116001146113e5576000926113da575b50508160011b916000199060031b1c19161760028201555b60608401518051906001600160401b0382116104d6578190610e7c6003850154612eda565b601f8111611387575b50602090601f831160011461131a5760009261130f575b50508160011b916000199060031b1c19161760038201555b60808401518051906001600160401b0382116104d6578190610ed96004850154612eda565b601f81116112bc575b50602090601f831160011461124f57600092611244575b50508160011b916000199060031b1c19161760048201555b60a08401518051906001600160401b0382116104d6578190610f366005850154612eda565b601f81116111f1575b50602090601f831160011461118457600092611179575b50508160011b916000199060031b1c19161760058201555b60c08401518051906001600160401b0382116104d657610f916006840154612eda565b601f8111611132575b509160209893918895938a90601f83116001146110915761107b9493837f182a3c36d70101c00c1251172cafd87f69e7e51caa24ab27ee82e181d0b5c347999a9461012094600994600092611086575b50508160011b916000199060031b1c19161760068201555b60e08401516007820155610100840151600882015501910151151560ff80198354169116179055336000526007895261103f8660406000206133cf565b85604051828982378a8184810160088152030190205561106c604051948594604086526040860191613409565b908382038a8501523397613409565b0390a3604051908152f35b015190508f80610fea565b97929190600683016000528b6000209860005b601f19841681106111185750926001837f182a3c36d70101c00c1251172cafd87f69e7e51caa24ab27ee82e181d0b5c3479a9b60099461107b99989761012097601f198116106110ff575b505050811b016006820155611002565b015160001960f88460031b161c191690558f80806110ef565b828201518b556001909a01998c9950918d01918d016110a4565b600684016000526020600020601f840160051c810160208510611172575b601f830160051c82018110611166575050610f9a565b60008155600101611150565b5080611150565b015190508980610f56565b600585016000908152602081209350601f198516905b8181106111d957509084600195949392106111c0575b505050811b016005820155610f6e565b015160001960f88460031b161c191690558980806111b0565b9293602060018192878601518155019501930161119a565b909150600584016000526020600020601f840160051c81016020851061123d575b90849392915b601f830160051c8201811061122e575050610f3f565b60008155859450600101611218565b5080611212565b015190508980610ef9565b600485016000908152602081209350601f198516905b8181106112a4575090846001959493921061128b575b505050811b016004820155610f11565b015160001960f88460031b161c1916905589808061127b565b92936020600181928786015181550195019301611265565b909150600484016000526020600020601f840160051c810160208510611308575b90849392915b601f830160051c820181106112f9575050610ee2565b600081558594506001016112e3565b50806112dd565b015190508980610e9c565b600385016000908152602081209350601f198516905b81811061136f5750908460019594939210611356575b505050811b016003820155610eb4565b015160001960f88460031b161c19169055898080611346565b92936020600181928786015181550195019301611330565b909150600384016000526020600020601f840160051c8101602085106113d3575b90849392915b601f830160051c820181106113c4575050610e85565b600081558594506001016113ae565b50806113a8565b015190508980610e3f565b600285016000908152602081209350601f198516905b81811061143a5750908460019594939210611421575b505050811b016002820155610e57565b015160001960f88460031b161c19169055898080611411565b929360206001819287860151815501950193016113fb565b909150600284016000526020600020601f840160051c81016020851061149e575b90849392915b601f830160051c8201811061148f575050610e28565b60008155859450600101611479565b5080611473565b60405162461bcd60e51b815260206004820152601d60248201527f5265706f7369746f727920616c726561647920726567697374657265640000006044820152606490fd5b60405162461bcd60e51b815260206004820152601960248201527f5265706f7369746f7279204944206973207265717569726564000000000000006044820152606490fd5b60405162461bcd60e51b815260206004820152601b60248201527f5265706f7369746f7279206e616d6520697320726571756972656400000000006044820152606490fd5b60405162461bcd60e51b815260206004820152601660248201527511da5d121d5888155493081a5cc81c995c5d5a5c995960521b6044820152606490fd5b60405162461bcd60e51b815260206004820152601060248201526f13985b59481a5cc81c995c5d5a5c995960821b6044820152606490fd5b346101b35760203660031901126101b35760043560005260096020526040600020805460018201549160028101546003820154916004810161162b90612f87565b9261163860058301612f87565b600683015461164960078501612f87565b90600160a01b60019003928360088701541697600987015495600a88015497600b0154986040519c8d9c8d5260208d015260408c015260608b01526101a08060808c01528a0161169891613050565b89810360a08b01526116a991613050565b9060c089015287810360e08901526116c091613050565b94610100870152811661012086015261014085019060a01c60ff16906116e591613195565b6101608401526101808301520390f35b346101b35760403660031901126101b35760243560ff811681036101b3576117216020916004356135b8565b604051908152f35b346101b35760e03660031901126101b3576064356001600160401b0381116101b3576117599036906004016132fd565b906084356001600160401b0381116101b3576117799036906004016132fd565b9060c4356001600160401b0381116101b3576117999036906004016132fd565b9091600435600052600660205260ff6009604060002001541615611fff576004356000908152600660205260409020600101546001600160a01b03163303611fab5760a43515611f5a577f0a01cba7422a89a19bace6c46301e386db8ec6061193e795f52650bcb70d25c361180f3684866132b7565b60208151910120636561737960e01b602060405161182c81612f4b565b600481520152148015611f02575b8015611eac575b8015611e54575b15611e0f576003546040516323b872dd60e01b815233600482015230602482015260a435604482015290602090829060649082906000906001600160a01b03165af19081156105eb57600091611dc6575b509061190d946118ab6118f993613437565b6118ed600554976118bb896133c0565b600555604051996118cb8b612f2f565b898b5260043560208c015260243560408c015260443560608c015236916132b7565b608089015236916132b7565b60a086015260a43560c086015236916132b7565b60e0830152600061010083015260006101208301526000610140830152426101608301524261018083015280600052600960205260406000208251815560208301516001820155604083015160028201556060830151600382015560808301519283516001600160401b0381116104d65761198b6004840154612eda565b601f8111611d7f575b506020601f8211600114611d12578192939495600092611d07575b50508160011b916000199060031b1c19161760048301555b60a08101519283516001600160401b0381116104d6576119ea6005850154612eda565b601f8111611cc0575b506020601f8211600114611c51578192939495600092611c46575b50508160011b916000199060031b1c19161760058401555b60c0820151600684015560e08201519283516001600160401b0381116104d657611a536007830154612eda565b601f8111611bff575b50602094601f8211600114611b9357948192939495600092611b88575b50508160011b916000199060031b1c19161760078201555b6101008301516008820180546001600160a01b0319166001600160a01b03928316179055610120840151600983018054610140870151909692909316929190600583101561067a57602096600b946101809460ff60a01b9060a01b16916affffffffffffffffffffff60a81b1617179055610160810151600a8501550151910155600435600052600d82526040600020602435600052825280604060002055600435600052600a8252611b488160406000206133cf565b604051604435815260a43583820152817f2254ec8b2d186fbd6baf41ad251166871af5189bbaba60796291278bd05b3153604060043593a3604051908152f35b015190508580611a79565b601f198216956007840160005260206000209160005b888110611be757508360019596979810611bce575b505050811b016007820155611a91565b015160001960f88460031b161c19169055858080611bbe565b91926020600181928685015181550194019201611ba9565b600783016000526020600020601f830160051c810160208410611c3f575b601f830160051c82018110611c33575050611a5c565b60008155600101611c1d565b5080611c1d565b015190508580611a0e565b6005850160005260206000209060005b601f1984168110611ca8575060019394959683601f19811610611c8f575b505050811b016005840155611a26565b015160001960f88460031b161c19169055858080611c7f565b9091602060018192858b015181550193019101611c61565b600585016000526020600020601f830160051c810160208410611d00575b601f830160051c82018110611cf45750506119f3565b60008155600101611cde565b5080611cde565b0151905085806119af565b60048401600052602060002090600096601f198416975b888110611d6757508360019596979810611d4e575b505050811b0160048301556119c7565b015160001960f88460031b161c19169055858080611d3e565b91926020600181928685015181550194019201611d29565b600484016000526020600020601f830160051c810160208410611dbf575b601f830160051c82018110611db3575050611994565b60008155600101611d9d565b5080611d9d565b9190506020823d602011611e07575b81611de260209383612f66565b810103126101b35761190d946118ab611dfd6118f99461342a565b9293505094611899565b3d9150611dd5565b60405162461bcd60e51b815260206004820152601860248201527f496e76616c696420646966666963756c7479206c6576656c00000000000000006044820152606490fd5b507fb8ec7d421b0785ce77d70cd99edbd16649cbb914448ae455c965fdc044177d7b611e813684866132b7565b6020815191012065195e1c195c9d60d21b6020604051611ea081612f4b565b60068152015214611848565b507f891512786ba3f7b33805becc1861c932d256f7489db5517c8b0a26119714ba47611ed93684866132b7565b60208151910120631a185c9960e21b6020604051611ef681612f4b565b60048152015214611841565b507f3ab0b67412918f8f1210e41bc8a2ff98ed67dd7036f38cf7d1bc582ed1fd38dd611f2f3684866132b7565b60208151910120656d656469756d60d01b6020604051611f4e81612f4b565b6006815201521461183a565b60405162461bcd60e51b8152602060048201526024808201527f426f756e747920616d6f756e74206d75737420626520677265617465722074686044820152630616e20360e41b6064820152608490fd5b60405162461bcd60e51b815260206004820152602660248201527f4f6e6c792070726f6a656374206f776e65722063616e2063726561746520626f604482015265756e7469657360d01b6064820152608490fd5b60405162461bcd60e51b8152602060048201526016602482015275141c9bda9958dd08191bd95cc81b9bdd08195e1a5cdd60521b6044820152606490fd5b346101b35760203660031901126101b357600435600052600c602052612093604060002061083f61206d82612f87565b9161207f600260018301549201612f87565b604051948594606086526060860190613050565b9160208501528382036040850152613050565b346101b3576020806003193601126101b357600435600052600a8152604060002090604051908181845491828152019360005281600020916000905b8282106121055761083f856120f981890382612f66565b6040519182918261315a565b8354865294850194600193840193909101906120e2565b346101b35761212a36613100565b90600052600d602052604060002090600052602052604060002054600052600960205260406000208054906001810154906002810154926003820154916006810154600160a01b60019003938460088401541694600984015491600a85015493600b860154956004810161219d90612f87565b6121a960058301612f87565b916007016121b690612f87565b936040519c8d9c8d8c81526020015260408d015260608c01526101c08060808d01528b016121e391613050565b8a810360a08c01526121f491613050565b9060c08a015288810360e08a015261220b91613050565b95610100880152811661012087015261014086019060a01c60ff169061223091613195565b61016085015261018084015215156101a08301520390f35b346101b3576020806003193601126101b3576001600160a01b0361226a613144565b16600052600b81526040600020604051808284829454938481520190600052846000209260005b868282106123a557846122a681860382612f66565b60009160005b8251811015612309576122bf818461370e565b5160005260ff60098084526040600020015460a01c16600581101561067a576003146122f4575b6122ef906133c0565b6122ac565b926123016122ef916133c0565b9390506122e6565b509161231490613660565b916000805b83518110156123975761232c818561370e565b51600052600980845260ff60406000209182015460a01c16600581101561067a57600314612364575b5061235f906133c0565b612319565b61235f919261237561239092613722565b61237f828961370e565b5261238a818861370e565b506133c0565b9190612355565b6040518061083f87826131a2565b8554845260019586019587955093019201612291565b346101b35760003660031901126101b3576000546040516001600160a01b039091168152602090f35b346101b35760003660031901126101b3576002546040516001600160a01b039091168152602090f35b346101b3576020806003193601126101b3576001600160a01b0361242f613144565b16600052600b8152604060002090604051908181845491828152019360005281600020916000905b82821061246e5761083f856120f981890382612f66565b835486529485019460019384019390910190612457565b346101b35760203660031901126101b3576004356001600160401b0381116101b357366023820112156101b3576124df60206124cc819336906024816004013591016132b7565b816040519382858094519384920161302d565b8101600881520301902054604051908152f35b346101b35760003660031901126101b35760058054600060015b8281106125a8575061251d90613660565b90600060015b828110612538576040518061083f86826131a2565b806000526009602081815260ff826040600020015460a01c168781101561067a571561256f575b505061256a906133c0565b612523565b926125a091839461256a946000525261258b6040600020613722565b612595828861370e565b5261238a818761370e565b91908661255f565b8060005260ff6009806020526040600020015460a01c168481101561067a57156125db575b6125d6906133c0565b61250c565b906125e86125d6916133c0565b9190506125cd565b346101b35760003660031901126101b35761260961332a565b600080546001600160a01b0319811682556001600160a01b03167f8be0079c531659141344cd1fd0a4f28419497f9722a3daafe3b4186f6b6457e08280a3005b346101b35760203660031901126101b357612662613144565b61266a61332a565b6001600160a01b031661267e811515613382565b6001600160601b0360a01b6003541617600355600080f35b346101b3576020806003193601126101b3576001600160a01b036126b8613144565b16600052600b81526040600020604051808284829454938481520190600052846000209260005b868282106127ca57846126f481860382612f66565b60009160005b82518110156127575761270d818461370e565b5160005260ff60098084526040600020015460a01c16600581101561067a57600114612742575b61273d906133c0565b6126fa565b9261274f61273d916133c0565b939050612734565b509161276290613660565b916000805b83518110156123975761277a818561370e565b51600052600980845260ff60406000209182015460a01c16600581101561067a576001146127b2575b506127ad906133c0565b612767565b6127ad91926123756127c392613722565b91906127a3565b85548452600195860195879550930192016126df565b346101b35760403660031901126101b3576024356001600160a01b03818116918290036101b35760043560005260096020526040600020906128248254151561347b565b600882015416330361288a57811561284c5760090180546001600160a01b0319169091179055005b60405162461bcd60e51b8152602060048201526016602482015275496e76616c6964207061796f7574206164647265737360501b6044820152606490fd5b60405162461bcd60e51b815260206004820152602760248201527f4f6e6c792061737369676e65652063616e20757064617465207061796f7574206044820152666164647265737360c81b6064820152608490fd5b346101b35760403660031901126101b3576128f8613144565b6001600160a01b03166000908152600b60205260409020805460243591908210156101b3576020916106da91613116565b346101b35760003660031901126101b3576003546040516001600160a01b039091168152602090f35b346101b3576020806003193601126101b3576001600160a01b03612974613144565b1660005260078152604060002090604051908181845491828152019360005281600020916000905b8282106129b35761083f856120f981890382612f66565b83548652948501946001938401939091019061299c565b346101b3576129d836613100565b90600052600a602052604060002080548210156101b3576020916106da91613116565b346101b3576020806003193601126101b357600435612a18613545565b8060005260098252604060002090612a328254151561347b565b6009820192835460ff8160a01c16600581101561067a57600203612e005760019485850180546000526006845260018060a01b0392838860406000200154163303612daa5785600052600c8552612ae4604080600020612ab26002835192612a9984612f14565b612aa281612f87565b84528d8101548b85015201612f87565b91829101528560025416906040518092630a10c4a960e21b825289600483015281806101a09687956024830190613050565b03915afa9182156105eb57600092612cdd575b5050612b08600689019182546135b8565b600360a01b60ff60a01b19841617855542600b999099019890985560035460405163a9059cbb60e01b8082529387166001600160a01b03166004820152602481018a905290879082908816816000816044810103925af180156105eb57600090612ca7575b612b779150613437565b54808810612bb5575b505050907f285d0f935b4d6592b80efc46cc3d9eb3e93e27fe245f0a6c2b5b9a9d04800ee79291541693604051908152a38055005b878103908111612c9157600354925460009081526006875260408082208b0154905193845286166001600160a01b031660048401526024830191909152909185918391604491839188165af19081156105eb57600091612c5c575b5015612c1e57868080612b80565b60405162461bcd60e51b81526004810184905260166024820152751499599d5b99081d1c985b9cd9995c8819985a5b195960521b6044820152606490fd5b90508381813d8311612c8a575b612c738183612f66565b810103126101b357612c849061342a565b87612c10565b503d612c69565b634e487b7160e01b600052601160045260246000fd5b508681813d8311612cd6575b612cbd8183612f66565b810103126101b357612cd1612b779161342a565b612b6d565b503d612cb3565b90809250813d8311612da3575b612cf48183612f66565b810103126101b357612d0786820161359b565b90612d146040820161359b565b50612d21606082016135a9565b50612d2e6080820161359b565b50612d3b60a082016135a9565b50612d4860c0820161359b565b50612d5560e0820161342a565b50612d63610100820161359b565b50610120810151868116036101b35761018081612d86610140612d9b940161342a565b50612d94610160820161342a565b500161342a565b508980612af7565b503d612cea565b60405162461bcd60e51b815260048101869052602860248201527f4f6e6c792070726f6a656374206f776e65722063616e20636f6d706c65746520604482015267626f756e7469657360c01b6064820152608490fd5b60405162461bcd60e51b815260048101839052601760248201527f426f756e7479206973206e6f74207375626d69747465640000000000000000006044820152606490fd5b346101b35760203660031901126101b3576004356000908152600660205260409020805460018201546001600160a01b03169161083f90612e8860028201612f87565b90612e9560038201612f87565b612ea160048301612f87565b612ead60058401612f87565b612eb960068501612f87565b9160078501549360ff6009600888015497015416966040519a8b9a8b613075565b90600182811c92168015612f0a575b6020831014612ef457565b634e487b7160e01b600052602260045260246000fd5b91607f1691612ee9565b606081019081106001600160401b038211176104d657604052565b6101a081019081106001600160401b038211176104d657604052565b604081019081106001600160401b038211176104d657604052565b90601f801991011681019081106001600160401b038211176104d657604052565b9060405191826000825492612f9b84612eda565b90818452600194858116908160001461300a5750600114612fc7575b5050612fc592500383612f66565b565b9093915060005260209081600020936000915b818310612ff2575050612fc593508201013880612fb7565b85548884018501529485019487945091830191612fda565b915050612fc594506020925060ff191682840152151560051b8201013880612fb7565b60005b8381106130405750506000910152565b8181015183820152602001613030565b906020916130698151809281855285808601910161302d565b601f01601f1916010190565b989591946130c3610120999c9b98956130b56130df968d60206130ed9b6130d198835260018060a01b03169101528d610140908160408201520190613050565b8c810360608e015290613050565b908a820360808c0152613050565b9088820360a08a0152613050565b9086820360c0880152613050565b9560e08501526101008401521515910152565b60409060031901126101b3576004359060243590565b805482101561312e5760005260206000200190600090565b634e487b7160e01b600052603260045260246000fd5b600435906001600160a01b03821682036101b357565b6020908160408183019282815285518094520193019160005b828110613181575050505090565b835185529381019392810192600101613173565b90600582101561067a5752565b602080820190808352835180925260409283810182858560051b8401019601946000925b8584106131d7575050505050505090565b909192939495968580600192603f198582030187528a519081518152828201518382015286820151878201526060808301519082015261325d61324061322d608080860151906101a08091870152850190613050565b60a0808601519085830390860152613050565b60c0808501519084015260e0808501519084830390850152613050565b91858060a01b0361010081818401511690840152610120908183015116908301526132916101408083015190840190613195565b6101608082015190830152610180809101519101529901940194019295949391906131c6565b9291926001600160401b0382116104d657604051916132e0601f8201601f191660200184612f66565b8294818452818301116101b3578281602093846000960137010152565b9181601f840112156101b3578235916001600160401b0383116101b357602083818601950101116101b357565b6000546001600160a01b0316330361333e57565b606460405162461bcd60e51b815260206004820152602060248201527f4f776e61626c653a2063616c6c6572206973206e6f7420746865206f776e65726044820152fd5b1561338957565b60405162461bcd60e51b815260206004820152600f60248201526e496e76616c6964206164647265737360881b6044820152606490fd5b6000198114612c915760010190565b8054680100000000000000008110156104d6576133f191600182018155613116565b819291549060031b91821b91600019901b1916179055565b908060209392818452848401376000828201840152601f01601f1916010190565b519081151582036101b357565b1561343e57565b60405162461bcd60e51b8152602060048201526015602482015274151bdad95b881d1c985b9cd9995c8819985a5b1959605a1b6044820152606490fd5b1561348257565b60405162461bcd60e51b8152602060048201526015602482015274109bdd5b9d1e48191bd95cc81b9bdd08195e1a5cdd605a1b6044820152606490fd5b6001600160a01b0390911681526040602082018190526134e193910191613409565b90565b156134eb57565b60405162461bcd60e51b815260206004820152602c60248201527f47697448756220757365726e616d65206e6f7420766572696669656420666f7260448201526b081d1a1a5cc81dd85b1b195d60a21b6064820152608490fd5b600260015414613556576002600155565b60405162461bcd60e51b815260206004820152601f60248201527f5265656e7472616e637947756172643a207265656e7472616e742063616c6c006044820152606490fd5b519060ff821682036101b357565b519061ffff821682036101b357565b9060ff16605081106135c8575090565b603c81106135eb5750603c810290808204603c1490151715612c91576064900490565b6028811061360e5750602881029080820460281490151715612c91576064900490565b60141161362f57601481029080820460141490151715612c91576064900490565b600a810290808204600a1490151715612c91576064900490565b6001600160401b0381116104d65760051b60200190565b9061366a82613649565b60409061367982519182612f66565b838152809361368a601f1991613649565b019160005b83811061369c5750505050565b60209082516136aa81612f2f565b600081528260008183015260008583015260606000818401528060808401528060a0840152600060c084015260e08301526000610100830152600061012083015260006101408301526000610160830152600061018083015282860101520161368f565b805182101561312e5760209160051b010190565b9060405161372f81612f2f565b80928054825260018101546020830152600281015460408301526003810154606083015261375f60048201612f87565b608083015261377060058201612f87565b60a0830152600681015460c083015261378b60078201612f87565b60e083015260088101546001600160a01b03908116610100840152600982015490811661012084015260a01c60ff16600581101561067a5761018091600b91610140850152600a810154610160850152015491015256fea2646970667358221220bd74419a3601ea2afc017394ad6541221267ef0a79a6db07435dbc334ecb80e864736f6c63430008130033",
  "linkReferences": {},
  "deployedLinkReferences": {}
}